:020000040000FA
:10000000B80F0020452F000039110000BB0B000085
:10001000BB0B0000BB0B0000BB0B0000BB0B0000C8
:10002000000000000000000000000000BB0B00000A
:10003000BB0B000000000000BB0B0000BB0B00006E
:100040002B3E000099400000B93F0000EF3900004E
:10005000BF48000091490000474900005548000092
:10006000BF48000091490000474900005548000082
:100070006B380000BF48000091490000474900006C
:1000800055480000BF480000914900004749000062
:1000900055480000BF480000914900004749000052
:1000A00055480000BF480000914900004749000042
:1000B00055480000000000000000000000000000A3
:1000C0000000000000000000000000000000000030
:1000D0000000000000000000000000000000000020
:1000E0000000000000000000000000000000000010
:1000F0000000000000000000000000000000000000
:1001000000000000000000000000000000000000EF
:1001100000000000000000000000000000000000DF
:1001200000000000000000000000000000000000CF
:1001300000000000000000000000000000000000BF
:1001400000000000000000000000000000000000AF
:10015000000000000000000000000000000000009F
:10016000000000000000000000000000000000008F
:10017000000000000000000000000000000000007F
:10018000000000000000000000000000000000006F
:10019000000000000000000000000000000000005F
:1001A000000000000000000000000000000000004F
:1001B000000000000000000000000000000000003F
:1001C00040EA01039B0703D009E008C9121F08C0D9
:1001D000042AFAD203E011F8013B00F8013B521E59
:1001E000F9D27047D2B201E000F8012B491EFBD2D0
:1001F00070470022F6E710B513460A460446194632
:10020000FFF7F0FF204610BD30B505462A460B46E5
:1002100012F8010B13F8014B08B1A042F8D01CB141
:10022000002802D06D1CF1E7284630BDCAB2401E3E
:1002300010F8011F8A4202D00029F9D1002070472E
:10024000421C10F8011B0029FBD1801A704730B501
:1002500004460020034600E05B1C934203D2E05CAE
:10026000CD5C401BF8D030BD034611F8012B00F8DF
:10027000012B002AF9D11846704700000FB400B5D1
:100280008DB010A909900B9000914FF0FF300A90AB
:1002900000200C9005480690054807906A4609A87A
:1002A0000F9900F0FFF80DB05DF814FBC1040000D9
:1002B000DF0400002DE9FF5F1D464FF0FF3BD5E94D
:1002C000014691465F464FF00008A9697F1C0198DE
:1002D0008847296A824688470028F6D1BAF1FF3F4D
:1002E0000CD024F4C064002E19DD600614D5BAF1D8
:1002F0002B0F09D0BAF12D0F0ED103E0584604B0F0
:10030000BDE8F09F44F48064A9697F1C0198884788
:10031000761E8246002E02DDBAF1300F03D0B9F10D
:10032000000F26D032E0A969761E44F400747F1CC9
:10033000019888478246002E05DDBAF1780F06D075
:10034000BAF1580F03D0B9F1000F10D01EE0B9F187
:10035000000F02D0B9F1100F18D1A969761E24F44C
:1003600000747F1C019888478246102002E0082014
:1003700000E00A20814609E008FB0908A969761E09
:1003800044F400747F1C019888478246002E05DDE6
:100390004946504600F072F80028EDDAE969019804
:1003A0008847A00502D46FF00100A8E7E00725D137
:1003B000600613D5600502D5C8F1000000E0404694
:1003C00029680A1D2A600968220501D5087015E010
:1003D000220701D5088011E008600FE02868011DA0
:1003E00029600068210502D580F8008006E0210719
:1003F00002D5A0F8008001E0C0F8008038467EE712
:1004000070B5064604F0F6FE046805460A2200218F
:10041000304600F075F82C6070BD2DE9F05F0546A0
:10042000002092469B4688460646814640241BE0B3
:10043000284641464746224600F0A9F853465A4608
:10044000C01A914110D311461846224600F090F888
:100450002D1A67EB01084F4622460120002100F0CB
:1004600087F817EB00094E41201EA4F10104DFDCE0
:10047000484631462A464346BDE8F09F3A2800D216
:10048000303820F02002412A01D3A2F137008842FF
:1004900001D34FF0FF3070470268114413780160B8
:1004A00018467047D1600449516104491162002126
:1004B0001161114600F08AB899040000B9050000E6
:1004C000426842B1016811F8013B23B1521EC0E9F4
:1004D0000012184670470121C160881E70474268AB
:1004E0005AB1C368016843B983688B4205D0491E7D
:1004F000521CC0E90012002070474FF0FF307047D7
:100500002DE9F04791460F4680460446002614F830
:10051000015B2DB100F04CF80068405DC007F6D1DA
:100520002B2D02D02D2D18D0641E4A463946204668
:1005300000F0E2F927B13968A14201D1C7F8008083
:1005400071054FF002040BD54042002803DD04F092
:1005500051FE0460A007BDE8F08746F48066E4E73A
:100560000028F8DA04F046FE04606FF00040F2E77D
:10057000202A04DB203A00FA02F100207047914063
:10058000C2F1200320FA03F3194390407047202A58
:1005900004DB203A21FA02F00021704721FA02F32D
:1005A000D040C2F120029140084319467047000034
:1005B000004870472857000010B50446FFF7F8FFC1
:1005C0000068005D00F0010010BD00002DE9F34F50
:1005D0008BB04FF0000801F10C000C464FF0010BFE
:1005E00046460DF1080A0190626901210198904781
:1005F000051E2DD0252D2CD0216A8847C0B16269F7
:10060000012101989047216A88470028F7D1411EAF
:1006100062690198904700E0761CA1690B988847B1
:10062000216A88470028F7D1E1690B988847DBE702
:10063000A1690B9888470746A84201D1761CD3E7E9
:10064000E1690B9888477F1C02D1B8F1000F6FD089
:1006500046E1002762693D463946019890472A28BD
:1006600004D162690121019890470125DFF8849245
:100670006269012101989047A0F130010A290AD24C
:100680004F45E5DC07EB870100EB4107303FDFD446
:1006900045F01005ECE7E90601D46FF000476C283F
:1006A0000AD04C2814D0682815D06A280DD0742898
:1006B0001CD07A281AD01DE0626901210198904768
:1006C0006C2802D045F0040514E045F002050DE069
:1006D00045F020050AE062690121019890476828E9
:1006E00002D045F0080505E045F400656269012186
:1006F00001989047C4E9015765283DD019DC582876
:100700007AD00CDC452837D004DC252826D04128B7
:1007100031D131E046282FD047282CD12CE05B285E
:1007200077D0612828D063287CD0642823D15AE070
:10073000D0E06F2848D008DC66281DD067281BD081
:10074000692821D06E2816D127E0702845D073285B
:1007500068D0752847D078280DD14DE0A1690B9855
:100760008847054625283FF469AFE1690B9888471B
:100770006D1C3FF46AAFB3E023466A466FF0010098
:100780000B99AFF300809EE045F040006060A80741
:1007900023464FF0000236D43EE0E8077FF447AF2F
:1007A0002068011D21600068290501D506701BE73E
:1007B000290701D5068017E7A90703D5F117C0E976
:1007C000006111E706600FE745F040006060A80790
:1007D00023464FF0080216D41EE040F60E0125EA2B
:1007E0000100606016E045F040006060A807234605
:1007F0004FF00A0207D40FE045F040006060A80700
:1008000008D5234610226FF001000B99AFF300804A
:1008100059E007E0234610226FF001000B99FFF723
:1008200049FD50E04FF000094F464B46632802D087
:100830005B2806D040E0E80601D40120A060012733
:100840003AE062690121019890475E2805D14FF096
:1008500001096269494601989047216939B9002127
:100860000A46534643F82120491C0829FADBB0B355
:10087000216969B9C11700EBD16253110AEB8301F9
:1008800022F01F02821A01200B68904003430B6084
:1008900062690121019890475D28E8D1B9F1000F04
:1008A00009D00020514651F82020D24341F82020A1
:1008B000401C0828F7DB02AB224600976FF00100CE
:1008C0000B99AFF3008000280CDA401C08D1BBF173
:1008D000000F05D04FF0FF300DB0BDE8F08FFFE7FF
:1008E0004046F9E7E90701D108F1010806444FF055
:1008F000000B79E6CCCCCC0C2DE9F05F8246007879
:10090000002715468B460AF10104B946302801D06C
:100910009DB113E014F8010B0127782803D0582863
:1009200001D045B10AE00DB1102D07D100271025E7
:1009300014F8010B02E0082500E00A250026B04665
:100940000EE005FB080005FB06F1012701EB104650
:100950001FFA80F8B6F5803F00D3B94614F8010BB2
:100960002946FFF78BFD0028EBDABBF1000F05D01D
:100970000FB1641E00E05446CBF80040B9F1000FFF
:1009800006D004F037FC02210160C81EBDE8F09FCC
:1009900048EA0640FAE710B540F63014C4F20804FD
:1009A000206880075CBF022010BD01F0A1F808BBE1
:1009B000012001F051F8E8B9206880071AD501F04C
:1009C00097F8B8B9022001F047F898B901F0CEF9CC
:1009D00080B901F057FA68B940F2DA24C2F2000493
:1009E000204601F0FDFA2088013081B2022001F09A
:1009F00087FA08B1002010BD012010BD70B582B08B
:100A000040F20800C2F2000001F0B0F8C8B140F2B4
:100A10000806012424A5C2F2000600BF284621468C
:100A200004F0AAFB0B2C1FD04FF47A704FF47A71AC
:100A300001F0A5FB304601F099F8002804F101040B
:100A4000ECD140F2DA24C2F20004204601F0C8FAE8
:100A50008DF807009DF8070060B145F6E870C0F218
:100A6000000004F089FB09E015A002B0BDE8704069
:100A700004F006BE218819A004F07EFB40F2B40009
:100A8000C2F2000001F0B0F98DF807009DF80700F0
:100A900040B145F6E870C0F2000002B0BDE8704019
:100AA00004F06ABB02B070BD48616E647368616B2C
:100AB000652072657472792025642E2E2E0D0A0031
:100AC00041533630382068616E647368616B65200D
:100AD0004641494C4544210D0000000046696E67BF
:100AE00065727072696E7420636F756E743A20253A
:100AF000640D0A0080B54FF6FF71884203D00121D2
:100B000000F0ECFE01E000F069FFB0FA80F040096F
:100B100080BD10B540F2DA24C2F20004204601F094
:100B20005FFA207810BD80B545F67041C0F2000133
:100B300007C91268904700B180BD64204FF47A71F4
:100B400001F01DFBBDE88040FFF758BF70B582B0D3
:100B500040F63011C4F2080140F2C0060B68C2F240
:100B6000000632789B0706D52AB9044600F0C0FF7C
:100B700048B102251EE022B108680025800719D47B
:100B80003570032516E00220022500F065FF88B9C4
:100B900040F2B400C2F20000028801AB0220002142
:100BA000022501F047F828B914B1BDF804002080EF
:100BB00001253570284602B070BD00BE70470000A8
:100BC0002DE9F04F81B040F2DC2E40F2F468C2F221
:100BD000000EC2F20008DEF80000B8F80410013080
:100BE0000429CEF80000C0F0188245F60C20C0F2AF
:100BF0000000006844F6D35B4FF4FA7AC1F2620B4E
:100C00000090B8F8000042F2C503820802FB03F22C
:100C10008BB2120D02FB1A02072B92B236D308EBED
:100C200002039B79552B31D1831CA3FB0B656E0905
:100C300006FB1A3343449B7943BBC31CA3FB0B65E0
:100C40006E0906FB1A3343449B79FBB9031DA3FBD2
:100C50000B656E0906FB1A3343449B79FF2B15D1B4
:100C6000431DA3FB0B656E0906FB1A3343449B79B6
:100C7000FF2B0BD1831DA3FB0B656E0906FB1A33FB
:100C800043449B79FF2B00F0F18000BF42449279EE
:100C9000702A41D140F62B32C2F2000292F800C015
:100CA000BCF1000F38D040F62C32C2F200021378AB
:100CB00093BB6FF0010212FA81F50123002100BFFE
:100CC00050FA83F6A6FB0B477F0907FB1A674744D8
:100CD000BF79FF2F18D15FFA83F909EB0006771C63
:100CE000A7FB0B24620902FB1A7242449279FF2A85
:100CF0000AD1B21CA2FB0B76770907FB1A224244E9
:100D00009279FF2A18D000BF0133DAB2954201F17F
:100D10000101D5DC81E100BF0130A0FB0B235A09A2
:100D200002FB1A000139A8F8000088B2A8F80410E4
:100D300003283FF666AF70E11A0600F06E81BCF141
:100D4000010FA3F101032AD1DAB21F2A78D840F6A5
:100D50009432C2F2000212784FF60C641B06CFF6F2
:100D6000FF744AD0431C404440F674350730C9B282
:100D7000C2F20005A3FB0B76770907FB04F7D6B296
:100D8000C75D01320130013903F10103AF55F1D1E3
:100D900040F694307446C2F20000027032E0BCF1BA
:100DA000020F4DD1DAB23F2A4AD840F67032C2F271
:100DB000000212784FF60C641B06CFF6FF742CD09D
:100DC000431C404440F630350730C9B2C2F200053A
:100DD000A3FB0B76770907FB04F7D6B2C75D013298
:100DE0000130013903F10103AF55F1D140F6703004
:100DF0007446C2F20000027014E040F67435744686
:100E0000C2F20005D2B2002040F62C31A8540120D5
:100E1000C2F2000108708AA00EE040F63035744638
:100E2000C2F20005D2B2002040F62C31A8540120B5
:100E3000C2F2000108707AA0294604F09DF9A64686
:100E4000B8F8040009F1030188420BD9B8F8001082
:100E50000131A1FB0B235A0902FB1A11A8F800105B
:100E6000411E62E70021C8F800105EE70130A0FBD8
:100E70000B12510901FB1A00744640448079023874
:100E8000062800F2BD80DFE800F004214476859D4D
:100E9000B80040F62B30C2F200000121017040F68C
:100EA0002C30C2F200000021017040F69430C2F2F2
:100EB0000000017040F67430C2F200002021FFF7FC
:100EC00098F945F6FF70C0F200001FE040F674315B
:100ED0006FA0C2F2000104F04FF940F62B30C2F2CD
:100EE00000000221017040F62C30C2F20000002107
:100EF000017040F67030C2F20000017040F63030F0
:100F0000C2F200004021FFF774F966A004F0B8FBBC
:100F100076E040F62B30C2F200000025057040F666
:100F20002C3040F67436C2F20000C2F200060570A2
:100F30004FA0314604F020F940F63037C2F20007E6
:100F40004FA0394604F018F93046394603F066FDE3
:100F500030462021FFF74DF938464021FFF749F987
:100F600040F69430C2F20000057040F67030C2F2D4
:100F70000000057044E0002040F2F0612060012094
:100F8000C2F200010870009840F20B41012201F00A
:100F900000FD35E0324832A340F6F4050433C2F2D6
:100FA00000050ECB85E80F00284603F0D9FD02F0BE
:100FB000C5FA32204FF47A7101F0E1F8FFF7A9FD8C
:100FC00002460FE04FF6FF70FFF794FD32204FF41A
:100FD0007A7101F0D4F8FFF79CFD40F6F405024663
:100FE000C2F2000546F20D012846C0F2000104F0ED
:100FF000EDF8284603F0B4FD02E0DE2003F0EEFF3A
:10100000B8F80400072803D9B8F80010A6461FE76F
:101010000021C8F80010A64687E601B0BDE8F08FB1
:10102000BDD3CAD5C3DCC2EBCAFDBEDD3A202573F1
:101030002028B3A4B6C83A2564290D0A0000000090
:10104000BDD3CAD553534944CAFDBEDD3A202573EA
:101050002028B3A4B6C83A2564290D0A0000000070
:1010600074302E7478743D22CCEDBCD3D6D02200DF
:101070005769466920535349443A2025730D0A00A5
:1010800057694669205057443A2025730D0A0000DD
:1010900053534944BDD3CAD5CDEAB3C93A202573C9
:1010A0000D0A0000BFAACABCBDD3CAD5C3DCC2EBBF
:1010B0000D0000002DE9F04182B040F20802C2F2BA
:1010C0000002126840F2EF11ADF80010110E8DF819
:1010D0000210110C8DF80310110A471E40F2522520
:1010E0008DF8041007210024C2F2000538048DF8A1
:1010F0000520ADF806102C801AD040F2C108C2F2CB
:1011000000086E4601204FF47A7101F038F8B5F905
:101110000000B0F1FF3F05DC404631462C80FFF770
:1011200073F820B9013F3804ECD1002400E00446F4
:10113000204602B0BDE8F0812DE9F04146F22018CA
:10114000C4F20008B8F80000B8F8201040F2E42516
:1011500001EA0006B7B20024C2F2000527FA04F043
:10116000C00704D055F8241009B12046884701343F
:10117000102CF3D1A8F81060BDE8F08110B582B052
:1011800040F29421C2F200014FF4357221F8052F8C
:1011900004460846022100F073FBB8B100F037FBAB
:1011A000B0B140F25420C2F200000DF107020E214E
:1011B00000F04EFB014600284FF0E30009D09DF8F7
:1011C000072032B1062A06D2E82002E0E12000E042
:1011D000E22002B010BD0878D52807D1487803284E
:1011E00006D1D1F8020020600020F2E7E720F0E706
:1011F000E420EEE740F2B430C2F20000006870472D
:101200002DE9F04F81B08A4640F2B43940F2703196
:10121000C2F20009C2F200010025D9F800600D7089
:1012200045F61801C0F200010F68D1F808B040F28D
:101230006C31C2F200010D60DBF8103090460446BC
:10124000384624210122984788BBDBF804C0384681
:101250002146524600230025E04740BB40F270354E
:10126000C2F200052878A0B9744200BFD9F8000086
:10127000D9F80010B042204638BFF043084440453A
:101280000DD801204FF47A7100F079FF28780028FA
:10129000ECD040F26C30C2F20000006808B10025CA
:1012A00005E002204FF47A7100F069FF012528461D
:1012B00001B0BDE8F08F00002DE9F04F81B08A4603
:1012C00040F2B43940F27131C2F20009C2F20001B9
:1012D0000025D9F800600D7045F61801C0F2000134
:1012E0000F68D1F808B040F26C31C2F200010D6015
:1012F000DBF81030904604463846242101229847F6
:1013000068BBDBF808C0384621465246002300255A
:10131000E04720BB40F27135C2F200052878A0B941
:10132000744200BFD9F80000D9F80010B04220463E
:1013300038BFF0430844404510D801204FF47A717B
:1013400000F01DFF28780028ECD040F26C30C2F28B
:1013500000000068B0FA80F0450900E0002528464A
:1013600001B0BDE8F08F000010B500F02DF840F698
:101370002730C2F20000FFF701FF40F2F264C2F230
:101380000004207008B100BFFEE7012014210122F3
:1013900000F07EF8207000B1FEE74FF4FA704FF4D1
:1013A0007A7100F0ECFE02A0BDE8104004F068B9CC
:1013B000706E353332696E6974207375636573734B
:1013C00066756C0D0000000080B545F61801C0F28E
:1013D000000107C91268904708B100BFFEE74FF44B
:1013E000FA704FF47A71BDE8804000F0C8BE70B565
:1013F00082B00D4640F294211446C2F2000144F638
:10140000D42221F8052F01228A70C87008460421D1
:101410001E4600F035FAB8B100F0F9F9B0B140F26B
:101420005420C2F200000DF107021A2100F010FA58
:10143000014600284FF0E30009D09DF8072032B1A3
:10144000072A06D2E82002E0E12000E0E22002B014
:1014500070BD0878D52815D148784B2814D18878E4
:10146000012813D1C87900F108039342EAD8A042B9
:1014700038BF04460831284622463470FEF7A0FEE5
:101480000020E4E7E720E2E7E420E0E7E520DEE70C
:1014900080B582B040F2942CC2F2000C41F2D443E9
:1014A0002CF8053F8CF802008CF8031060460521EB
:1014B0008CF8042000F0E4F9A8B100F0A8F9A0B17C
:1014C00040F25420C2F200000DF107020E2100F09C
:1014D000BFF94FF0E30148B19DF8072032B1022A6D
:1014E00007D2E82102E0E12100E0E221C8B202B027
:1014F00080BD0178D52906D14078B0F1150118BF1B
:101500006FF01B01F2E7E721F0E700002DE9F0435F
:1015100081B00446FFF76EFE05466FEA0009FFF74B
:1015200069FE0746FFF766FE6E423146AF4238BF9E
:1015300049460844A0421DD20DF10308404601214E
:1015400022460127FFF75CFE18B19DF80300012831
:1015500011D001204FF47A7100F011FEFFF74AFE1E
:101560000746FFF747FE3146AF4238BF49460844B9
:10157000A042E3D30027384601B0BDE8F083000065
:101580002DE9F04140F61C3540F62634C2F2000544
:101590000020C2F200042881C5E90000207000206C
:1015A00029460A222346FFF722FF40F2F261C2F2E7
:1015B0000001087078BB207868B3002758A600BFE8
:1015C000E95D304603F0D8FD207801378742F7D334
:1015D00055A004F055F840F2B000C2F200000778C0
:1015E000002F38D0257840F20C0440F61C38002635
:1015F000C2F20004C2F20008A07A854205D140463A
:1016000021462A46FEF723FE38B10136B74204F1DF
:101610002004F1D11FE0BDE8F08130061BD4E07F4B
:101620000138052823D8DFE800F0032D22224B5E85
:10163000444940F6BC1043A2C2F200005368016066
:1016400011894360018103F08BFA0120012403F02A
:10165000A7FB012059E0042003F03CFD42A004F068
:101660000FF84FF47A704FF47A7100F088FD42A0C1
:1016700004F006F84FF4FA704FF47A71BDE8F041C7
:1016800000F07DBD324840F6BC1431A1C2F2000426
:10169000206008894A6820812046626003F060FA71
:1016A00032204FF47A7100F06AFDFFF732FA0246F9
:1016B0002AA1204603F08AFD204603F051FAD6E71E
:1016C0001D4940F6BC101CA2C2F200005368016024
:1016D00011894360018103F043FA0220022403F0E0
:1016E0005FFB022011E0114940F6BC100FA2C2F2CC
:1016F00000005368016011894360018103F030FAF2
:101700000320032403F04CFB032003F0E3FC01F06F
:10171000EBFE40F2F160C2F200000470A7E700BFE8
:1017200025303258200000000D0000007661302E78
:1017300076616C3D330000007661302E76616C3D41
:10174000320000007661302E76616C3D3100000081
:101750007661302E76616C3D3500000074302E7459
:1017600078743D2225642200BFA8C6ACCAB6B1F089
:10177000CAA7B0DC0D0000003E3E3E203130306D87
:101780007320203C3C3C0D0A0D00000010B5017890
:1017900049BB417839BB8178FF2924D190F803C037
:1017A0000179CCF10003DBB299421CD1BCF1000FEE
:1017B00010D0431D4FF0FF0E614600BF13F8014BE0
:1017C000013974445FFA84FEF8D18EF0FF010CF108
:1017D000050301E000210523C35C994203D10530D4
:1017E00082F800C010BD002010BDB0B5054619201C
:1017F0000C46FFF78BFE40B1284621460F22FFF72B
:10180000FFFC002818BF2046B0BD0020B0BD10B5B9
:1018100040F25424C2F2000420464021FEF7E9FCC5
:1018200020460721FFF7E1FF00284FF000000ED00F
:101830002178012918BF10BD45F62071601CC0F247
:1018400000010622FEF703FDB0FA80F0400910BD4A
:1018500070B514460546FFF7C8FF08280ED329784F
:1018600001290BD10135C61F284600212246FFF76A
:101870008DFF20B9013E05F10105F5D1002070BDB5
:1018800070B540F294250646C2F20005002028807B
:10189000FF20A87048422871681D0C468642E970F6
:1018A00003D031462246FEF78BFC4FF000034CB1CB
:1018B000FF21204616F8012B01380A44D1B2F9D194
:1018C000D04300E0002066197071E11D28466422B3
:1018D000B371BDE87040FFF7EFBC00002DE9F047A1
:1018E00082B08846814601F0ABFB01F031FB01205C
:1018F00040F285478DF80200C2F2000700203870E0
:1019000045F67040C0F2000084680668A3680DF1D7
:10191000020130460122984738780028FCD0072081
:1019200001F0BAFB0C208DF8030000203870A3688A
:101930000DF1030130460122984700BF3878002896
:10194000FCD04FEA192A00208DF804A03870A36853
:1019500001A930460122984738780028FCD00020A1
:101960008DF805903870A3680DF10501304601220D
:10197000984700BF38780028FCD04FEA182500208F
:101980008DF806503870A3680DF10601304601222B
:10199000984700BF38780028FCD000208DF80780D9
:1019A0003870A3680DF1070130460122984700BF47
:1019B00038780028FCD05AFA89F0284450FA88F088
:1019C000143001F011FB4FF4FA60FFF773FB0028AD
:1019D00014BF407AFF2002B0BDE8F08770B582B036
:1019E00001F02EFB01F0B4FA012040F285458DF89C
:1019F0000600C2F200050020287045F67040C0F2D3
:101A0000000086680468B3680DF1060120460122D3
:101A1000984700BF28780028FCD0032001F03CFB49
:101A20000D208DF8070000202870B3680DF1070124
:101A300020460122984700BF28780028FCD01120BA
:101A400001F0D2FA4FF4FA60FFF734FB002814BF1C
:101A5000407AFF2002B070BDF0B581B0044601F0BD
:101A6000EFFA01F075FA012040F285468DF8010089
:101A7000C2F200060020307045F67040C0F200004F
:101A800087680568BB680DF1010128460122984767
:101A900030780028FCD0042001F0FEFA02208DF8F6
:101AA000020000203070BB680DF1020128460122BF
:101AB000984700BF30780028FCD000208DF8034004
:101AC0003070BB680DF1030128460122984700BF22
:101AD00030780028FCD0E01D01F086FA4FF4FA605F
:101AE000FFF7E8FA002814BF407AFF2001B0F0BDEC
:101AF00070B582B001F0A4FA01F02AFA012040F298
:101B000085458DF80600C2F200050020287045F6D4
:101B10007040C0F2000086680468B3680DF10601E9
:101B200020460122984700BF28780028FCD00320D7
:101B300001F0B2FA01208DF8070000202870B36888
:101B40000DF1070120460122984700BF28780028A0
:101B5000FCD0052001F048FA4FF4FA60FFF7AAFA2A
:101B6000002814BF407AFF2002B070BDF0B581B0EC
:101B7000044601F065FA01F0EBF9012040F28546D8
:101B80008DF80100C2F200060020307045F670406A
:101B9000C0F2000087680568BB680DF101012846A6
:101BA0000122984730780028FCD000208DF80200F0
:101BB0003070BB680DF1020128460122984700BF32
:101BC00030780028FCD000208DF803003070BB680E
:101BD0000DF1030128460122984700BF3078002804
:101BE000FCD0C8204FF47A7100F0C9FA40F25221BB
:101BF000C2F20001B1F90000B0F1FF3F01DD0120A8
:101C000015E040F2C102C2F200021078EF284FF056
:101C100001000AD15378012B07D19379072B04D106
:101C2000D2F8020000BA2060002000220A8001B031
:101C3000F0BD00002DE9F04F83B0009392468B4633
:101C4000814601F0FDF901F083F9012040F285475A
:101C50008DF80500C2F200070020387045F670408C
:101C6000C0F2000085680468AB680DF105012046EC
:101C70000122984738780028FCD0082001F00CFA9F
:101C80001B208DF8060000203870AB680DF10601AE
:101C900020460122984700BF38780028FCD0002059
:101CA0008DF807903870AB680DF1070120460122CE
:101CB000984700BF38780028FCD04FEA1B26002048
:101CC0008DF808603870AB6802A920460122984759
:101CD00038780028FCD000208DF809B03870AB6847
:101CE0000DF1090120460122984700BF38780028ED
:101CF000FCD04FEA1A2800208DF80A803870AB68B3
:101D00000DF10A0120460122984700BF38780028CB
:101D1000FCD000208DF80BA03870AB680DF10B01E2
:101D200020460122984700BF38780028FCD009EBF4
:101D3000060050FA8BF0404450FA8AF0243001F04B
:101D400053F94FF4FA60FFF7B5F958B14289009B97
:101D500012BA120C0146407A1A80898909BA090C14
:101D6000598000E0FF2003B0BDE8F08FF0B581B0EE
:101D700001F066F901F0ECF8012040F285458DF89C
:101D80000200C2F200050020287045F67040C0F243
:101D9000000086680468B3680DF102012046012244
:101DA000984700BF28780028FCD00320032701F0C3
:101DB00073F900208DF803702870B3680DF10301EA
:101DC00020460122984700BF28780028FCD0072031
:101DD00001F00AF94FF4FA60FFF76CF9002814BF1C
:101DE000407AFF2001B0F0BDF0B581B0044601F0AB
:101DF00027F901F0ADF8012040F285468DF8020088
:101E0000C2F200060020307045F67040C0F20000BB
:101E100087680568BB680DF10201284601229847D2
:101E200030780028FCD0032001F036F90F208DF81F
:101E3000030000203070BB680DF103012846012229
:101E4000984700BF30780028FCD0132001F0CCF870
:101E50004FF47A70FFF72EF980B1C289014612BAA9
:101E6000120C407A22804A7CA270D1F8122012BA59
:101E70006260CA7D2272497E617200E0FF2001B07B
:101E8000F0BD000070B582B001F0DAF801F060F842
:101E9000012040F285458DF80600C2F200050020C1
:101EA000287045F67040C0F2000086680468B36888
:101EB0000DF1060120460122984700BF287800282E
:101EC000FCD0032001F0E8F805208DF80700002081
:101ED0002870B3680DF1070120460122984700BF22
:101EE00028780028FCD0092001F07EF84FF4FA6031
:101EF000FFF7E0F8002814BF407AFF2002B070BD61
:101F00002DE9F04383B08946804601F099F801F04D
:101F10001FF8012040F285478DF80700C2F2000744
:101F20000020387045F67040C0F2000085680668F1
:101F3000AB680DF107013046012298473878002838
:101F4000FCD00620062401F0A7F800208DF80840F8
:101F50003870AB6802A930460122984738780028CB
:101F6000FCD000208DF809803870AB680DF10901B4
:101F700030460122984700BF38780028FCD04FEA4D
:101F8000192400208DF80A403870AB680DF10A0161
:101F900030460122984700BF38780028FCD0002046
:101FA0008DF80B903870AB680DF10B0130460122B3
:101FB000984700BF38780028FCD008EB040050FA9E
:101FC00089F00D3001F010F84FF4FA60FFF772F865
:101FD000002814BF407AFF2003B0BDE8F083000062
:101FE000F0B581B0044601F02BF800F0B1FF0120FC
:101FF00040F285468DF80200C2F2000600203070E3
:1020000045F67040C0F2000087680568BB680DF1B6
:10201000020128460122984730780028FCD003208E
:1020200001F03AF81D208DF8030000203070BB68E5
:102030000DF1030128460122984700BF307800289F
:10204000FCD0212000F0D0FFC820FFF733F828B1E2
:102050004189407A09BA090C218000E0FF2001B0D3
:10206000F0BD0000B0B543F22404C4F2080400251A
:10207000C8200121257100F082F825702078002801
:10208000FCD1207840F00200207000BF207880074B
:10209000FCD4002004F8020C14F8020C0028FBD138
:1020A000002004F11C0100BF11F8102002F07F0293
:1020B00001F8102011F91020002AFBD40130032868
:1020C000F2D1012000F00BF84EF2BB420021C4F225
:1020D000010201201170BDE8B04000F027B880B5C2
:1020E0000122EFF3108182F3108840F27C32C2F2B9
:1020F000000232F810308BB94EF2FE3C45F22C73E0
:10210000C4F2010CC0F20003BCF800E033F8103058
:1021100043EA0E0343F42543ACF8003032F81030A4
:10212000013322F8103081F3108880BD0122EFF3D3
:10213000108182F3108840F27C32C2F2000232F841
:10214000103023B132F81030013B22F8103032F851
:1021500010208AB94EF2FE3CC4F2010C45F22C72FA
:10216000BCF80030C0F2000232F8100043F42542FF
:1021700022EA0000ACF8000081F31088704740F2BA
:10218000D422C2F20002126801FB00F04CF60021DA
:10219000C3F69A314FF47A7CB1FBF2F1A0FB0C321A
:1021A0001AB9B3FBF1F0800805E08900B0FBF1F04B
:1021B000A0FB0C0119B908B101F025B970474FF027
:1021C000FF3001F020B97047022818BF704740F275
:1021D000743045F23471C2F20000C0F2000100F028
:1021E00033BB8446C0E905130020CCF81C2070479F
:1021F00010B542684EF2801E5169136A40F2605C6D
:102200000029CEF2000EC2F2000C0ED401F01F0223
:10221000012404FA02F24C094EF82420BFF34F8F38
:10222000BFF36F8F00224CF82120996B00290ED448
:1022300001F01F02012404FA02F24C094EF8242096
:10224000BFF34F8FBFF36F8F00224CF82120D96B63
:1022500000290ED401F01F02012303FA02F24B09F8
:102260004EF82320BFF34F8FBFF36F8F00224CF83F
:102270002120D0E9022300210160936082680020C0
:10228000516310BD8068013900EB82020020D164E7
:10229000704781684FF000420A6181684A61816835
:1022A0008A61816800224A62816800208A627047E0
:1022B0002DE9F04182B004460020164601904FF00F
:1022C000FF3002F0030700906A46204633468846F6
:1022D00001F09CFAA268156B0198C0B9042331077C
:1022E00058BF0223DDF800C0B10703D4D91902EBAF
:1022F000810108E002EB830143F00102C1F84CC008
:10230000A16801EB820101F14C02C2F800C0710624
:1023100004D5A1680A6C42F480020A64012F25F4F6
:10232000403118BF41EA0045022E07D130B16A465C
:1023300020464146012301F069FA019825F04071D9
:10234000002F18BF41EA0065A16800200D6302B0AC
:10235000BDE8F08180B54168D0F808E0096AD1E9AC
:1023600004C38A6942F0004243F00043CEF81430BF
:1023700083689A6182684CF000431361CA6983687C
:102380005A62096A82680020916280BD8068426E4C
:1023900001328A60C06A4EF22002C4F20102126861
:1023A000C0F3C35C40F2D420C2F20000C2F3026367
:1023B000006802F007029840D04020FA0CF0486014
:1023C000012200200A6070472DE9F04383B00D46DA
:1023D000097C0022032988BF012202612A7C49F27C
:1023E0000007C4F2160707EB02220746012347F84D
:1023F000082F03FA01F17960D5E906124FF0000CBD
:1024000047F8045CC7E9031C7A612E6AEFF3108277
:1024100083F3108844F210042B7CC4F20804814634
:102420004FF00041206821FA03F3984320602068B0
:1024300082F310884FF42542386802603868C0F88B
:102440002CC03868C0F83CC03868C0F848C0D5E92E
:102450000003AA68032838684FEAC25208BF02F591
:102460008032C262386801613868416138688161D0
:102470003868C0F824C03868C0F828C0706A396865
:10248000C861B06A396808623868591E8166386860
:1024900041662968D6F850804FF0FF300129CDF809
:1024A00004C000900ED031B968684FF0FF3101EBE5
:1024B0005000009006E0E9686A464846002301F0B3
:1024C000A5F900983968486539688865296804293C
:1024D00003D33968C86539680866316D019889BBCE
:1024E0003178A1B12A687168022A03D0032A03D186
:1024F000032205E0092203E00922002908BF062281
:1025000048EA811343EA0111114341F48078317A9A
:10251000C1B12A68F168022A04D0032A05D14FF418
:10252000403208E04FF4102205E04FF41022002959
:1025300008BF4FF4C02248EA815343EA01511143D6
:1025400041F08078D9F80410096A91F84820D3073F
:1025500005D00A6C3B68013ADA6491F8482092078A
:1025600003D5496C3A6801391165396800228A63DC
:102570003968C1F88820316D00294FEA004105D142
:10258000D6E90B2348EA423242EA437896F84820DB
:102590003B68002A4FF4A00208BF4FF4AA021A6455
:1025A0002A6841EA0060012A04D139680022CA641D
:1025B00039680A65D9F8081040F00302C1F8348080
:1025C000D9F8081040F001000A63D9F808104A460B
:1025D0000863D9E90201C1606869697C02F08EF87C
:1025E000B06B96F834104A4602F088F8F06B96F813
:1025F00035104A4602F082F845F25401C0F2470114
:102600000020C9F8001003B0BDE8F08383684A1EBB
:102610009A6643681B683BB94FF0FF3303EB5101E7
:1026200083685965836899658168CB6ADB0707D140
:102630004A6681684FF4AA020A64D0E90210C860B1
:1026400000207047D0E902120020CA607047D0E92C
:10265000021200204A6070478068C26A02F00102DC
:102660004A60826C00200A607047D0E902120020A4
:102670008A607047B0B5044600690025C5712168BD
:10268000204601F073FA94F82600216984F82800A6
:10269000A069B322C4E90750002084F82C5084F8C4
:1026A0002A50CA71B0BD8446C0E90D130020CCF891
:1026B0003C207047B0B5044600690025C57121680B
:1026C000204601F053FA94F82600A16984F8280006
:1026D0002069C4E90751B32184F82C5084F82A50AA
:1026E000C17120694EF28013C5712068CEF20003DB
:1026F000016A012001F01F0200FA02F24909E560B7
:1027000043F82120BFF34F8FBFF36F8F21684969D2
:1027100001F01F0200FA02F2490943F82120BFF339
:102720004F8FBFF36F8F2168C96901F01F0200FA54
:1027300002F2490943F82120BFF34F8FBFF36F8F97
:102740002168896901F01F0200FA02F2490943F881
:102750002120BFF34F8FBFF36F8FEFF3108180F312
:10276000108844F204032268C4F2080312781D683A
:10277000C2F10902904028431860186881F310885C
:102780000020B0BDB0B50A784FF20003C4F20903CF
:1027900003EB0222044602610160D1E90202002536
:1027A000A5634FF0010CC4E90102D1E90B0260639B
:1027B00044F20400E263EFF3108E8CF31088C4F24D
:1027C00008000B780268C3F109030CFA03F39A437B
:1027D000026000688EF31088204601F0C7F944F6C5
:1027E0004311C5F249210020C4E90555C4E9075544
:1027F00084F8295084F82A5084F82B5084F82C50FF
:10280000E160B0BD9C46012380F82AC001F068BA9F
:102810000346416000209A607047C0684BF2BD6279
:10282000CAF6B6521044B0FA80F0420900200A708D
:1028300070479C46002380F82AC001F051BA014637
:10284000002200200A60704780B545F25422C5F28C
:102850004F020260084601F07DFF002080BD70B588
:1028600086B001A80126049003A814460D46CDE9C0
:102870000121ADF80C6000F0CBFD40F28430EFF3A5
:10288000108186F31088C2F2000002683AB940F65F
:102890000352C4F20802002313704023137002682D
:1028A00040F600030132026081F31088E2034FEA30
:1028B0001521C4F20803EAB20BD503EB811656F8D2
:1028C000225025F4803546F8225024F4803546F80D
:1028D000225003EB811141F82240EFF310810122D5
:1028E00082F31088026812B10268013A026000683F
:1028F00038B940F60350C4F208000022027080226A
:10290000027081F31088002006B070BD4FF4FF50B4
:1029100000EAD1000423C4F20803C0580023CFF614
:10292000FF7343EA1040C9B2C84000F00101002023
:1029300011607047C8B24FF0010C4FF4FF5303EA27
:10294000D1010CFA00F040F20C0CC4F2080C51F862
:102950000C30012A41EA0C0103D123EA0042024370
:1029600003E023EA000242EA004200200A607047C6
:102970006FF03F0000EA9100C9B200EB810040F621
:102980000001C4F208014058C0F34001002011606A
:102990007047C8B2012303FA00F083B2002A08BFCF
:1029A00003044FF4FF5000EAD1010822C4F20802E8
:1029B00000208B50704780B5084601F0CBFE002008
:1029C00080BD80B54FF4FF5000EAD10140F2000C09
:1029D000C4F2080C51F80CE003EA020040EA0E00D1
:1029E00062EA03020240002041F80C2080BD4FF44F
:1029F000FF5000EAD1000421C4F208014058010C44
:102A000000201180704703EA020023EA020240EA34
:102A100002424FF4FF5000EAD1010C23C4F2080334
:102A20000020CA5070474FF4FF5000EAD100042143
:102A3000C4F20801415800201180704703EA0200E7
:102A400023EA020240EA02424FF4FF5000EAD101B9
:102A50000823C4F208030020CA5070478A0701D433
:102A6000062206E0026A937803F07B03937000224B
:102A70000261C9071CBF002282611046704710B571
:102A8000C2690123127803FA02F212F0060F02D093
:102A90000A78120723D4026A4FF0000E92F802C09F
:102AA0000CF00B039370036A8A78C0F80CE05A703C
:102AB0004A781C7802F0030204F0FC0422441A70E5
:102AC000CA789A74DA79097802F0A30201F05C01FD
:102AD0001144D971006A0CF07B01817001E04FF064
:102AE000030E704610BD8446C0E909130020CCF8DF
:102AF0002C207047026A002141609170C1694EF23A
:102B0000801C4A69012102F01F0301FA03F35209F4
:102B1000CEF2000C4CF82230BFF34F8FBFF36F8F13
:102B2000C269D26A02F01F0301FA03F352094CF89A
:102B30002230BFF34F8FBFF36F8FC269D26902F0AB
:102B40001F0301FA03F352094CF82230BFF34F8FF1
:102B5000BFF36F8FC269526A02F01F0301FA03F3D9
:102B600052094CF82230BFF34F8FBFF36F8FEFF352
:102B7000108281F3108844F20403C069C4F2080390
:102B800000784FF0004C19682CFA00F008431860E8
:102B9000186882F31088002070474FF0FF32002041
:102BA0000A604A6070472DE9F0470A780123934094
:102BB00013F0060F05D00B6CDB681B781B0700F1C8
:102BC000DE8048F20003C4F2110303EB0222D1E9D4
:102BD0000E364FF0000843628378C66223F0030389
:102BE0005E1C86704E68026280F80080C161C0F889
:102BF000288016B943F002038370CF6A4EF2001C9E
:102C000007F01F034FF0010ECEF2000C0EFA03F393
:102C10007E090CF1800491F8285044F82630BFF367
:102C20004F8F46F2003AC4F2000ABFF36F8F5AF892
:102C300027602A0126F480364AF827600CF5407593
:102C40005AF82760EA554A6940F2605902F01F06B7
:102C5000C2F200090EFA06F6530949F827000F7C64
:102C600044F82360BFF34F8FBFF36F8F5AF82230C1
:102C70003E0123F480334AF822305AF82230AE5411
:102C800049F82200CA690B7E02F01F060EFA06F60A
:102C9000570944F82760BFF34F8FBFF36F8F5AF87F
:102CA00022601B0126F480364AF822605AF822601E
:102CB000AB5449F822004A6A91F8203002F01F060E
:102CC0000EFA06F6570944F82760BFF34F8FBFF39B
:102CD0006F8F5AF822401B0124F480344AF82240B6
:102CE0005AF82240AB5449F82200EFF310828EF3D9
:102CF000108844F204050B78C4F208054FF0004434
:102D00002E6824FA03F326EA03032B602B6882F370
:102D10001088026A82F80280026A82F80480026ADD
:102D200082F80980026A82F80A80026A82F80B80BF
:102D3000026AA2F81A800A780EFA02F340F2F93217
:102D4000134202D0036A4024DC74036A06241C7711
:102D50000B780EFA03F3134203D0026A4FF4784360
:102D60009382D1E90163CA684FEAC20242EA0312C0
:102D70003EB1032E08BF42F04002F22602E00322D9
:102D8000ABE0E226036A02271A70026A00259671F8
:102D90000A6C936907EA4307082B036A08BF0A27EE
:102DA0005F73066AD2E9013735721668DB0126F0D7
:102DB0000106022EDEB267F345160AD1036AFF2729
:102DC0005F701268022A026A08BF46F01006D671C8
:102DD00017E0036ADE71D268036A97785F705778EC
:102DE0001E7807F0030706F0FC0637441F70D778FB
:102DF0009F74DF79127807F0A30702F05C023A446F
:102E0000DA710022C369C0E90322C0E90522D1F8C2
:102E100040E05B699EF800105AF8234003F01F055C
:102E200024F480344AF823405AF82340012404FA59
:102E300005F65B090CF5C075BFF35F8F45F823609D
:102E40004CF82360C369DB6A5AF8236026F48036A5
:102E50004AF823605AF8236003F01F0604FA06F6C6
:102E60005B09BFF35F8F45F823604CF82360C369AB
:102E7000DB695AF8236026F480364AF823605AF852
:102E8000236003F01F0604FA06F65B09BFF35F8FA9
:102E900045F823604CF82360C3695B6A5AF82360E5
:102EA00026F480364AF823605AF8236003F01F06A0
:102EB000B4405B09BFF35F8F45F823404CF82340D3
:102EC0001C23076A63F39F01B970DEF8141044F6FF
:102ED0005513C5F24333C0E901311046BDE8F08710
:102EE0000346416100209A6170470246806908608C
:102EF000002100209161704780B5D0F820E09EF855
:102F000002C00CF07B038EF80230837803F00303D9
:102F1000D21A0B44C360036A02619A7842F08002BD
:102F20009A70827802F00302022A05D10988006AA9
:102F300041F47E41C18102E00978006AC17000203D
:102F400080BD000000F0EAF801F0ACF9FEE70000F7
:102F5000F0B581B040F20806C2F20006F07840F207
:102F600085458DF80000C2F200050020287045F666
:102F70007040C0F2000087680468BB68694620465C
:102F80000122984728780028FCD070880DF10101B3
:102F90008DF8010000202870BB6820460122984768
:102FA00028780028FCD030680DF10201000A8DF865
:102FB000020000202870BB6820460122984700BF0D
:102FC00028780028FCD030680DF103018DF803004B
:102FD00000202870BB6820460122984728780028E6
:102FE000FCD001B0F0BD0000F0B581B00446000A8D
:102FF00040F285468DF80200C2F2000600203070D3
:1030000045F67040C0F2000087680568BB680DF1A6
:10301000020128460122984730780028FCD0002081
:103020008DF803403070BB680DF103012846012282
:10303000984700BF30780028FCD001B0F0BD0000F8
:1030400070B582B0EF2040F285458DF80600C2F2DF
:1030500000050020287045F67040C0F20000866828
:103060000468B3680DF1060120460122984700BFAD
:1030700028780028FCD001208DF807000020287057
:10308000B3680DF1070120460122984728780028EF
:10309000FCD002B070BD0000F0B581B040F28546B2
:1030A0000021C2F200068DF80210317045F6704121
:1030B000C0F200018F680C68BB6805460DF1020183
:1030C00020460122984700BF30780028FCD000201D
:1030D0008DF803503070BB680DF1030120460122CA
:1030E000984700BF30780028FCD001B0F0BD4EF208
:1030F0002000C4F201008179006840F69832C2F2E3
:103100000002C0F3026052F8211021FA00F040F2F0
:10311000D421C2F2000108607047000070B54EF67D
:10312000085040F20005CEF200004FF47001C0F2EA
:103130000005C0F8801005600020FFF745F800F09A
:1031400077F801200124FFF73FF8286840F6E421D2
:10315000A0F5806080F30A8840F2B400C2F200005B
:10316000C0F20001FDF745F840F2000046F284018C
:1031700040F2B402C2F20000C0F20001C0F200024C
:10318000FDF71EF840F2C01540F2C010C0F2000575
:10319000C0F20000401BC11700EB917081100129A3
:1031A00008DB2E46C8BF841056F8040B284480471D
:1031B000013CF9D1FFF79BFFFEF754FF0320FEF718
:1031C0008EFF40F610510020C4F208014FF6FF7246
:1031D00021F8102001300C28FAD10320FEF7A6FFB9
:1031E0000320FEF77CFF0420C4F20E0000210160E2
:1031F00041608160C1600320FEF798FF0220FEF766
:10320000E3FF00F0B5F80020BDE8704000F0AEB874
:1032100080B545F6EC41C0F2000107C9126890473D
:1032200040F2F460C2F2000000210160818080BDA4
:103230002DE9F0414EF2FE34C4F201044AF203508B
:103240004CF200152080C4F201050120A88000BFC7
:10325000A8880028FCD147F200010120C4F2000137
:1032600028808860086040F6983742F6005041F2A6
:103270000022C2F20007C0F23110C0F27A02C7E9A0
:10328000000243F200604FF40041C0F26E10C7E943
:1032900002104CF20020C0F6EB304EF220063961ED
:1032A000C4F201067861B079316857F82000C1F3A3
:1032B000026140F2D428C840C2F20008C8F80000F9
:1032C00000206075092086F8820094F8820018B901
:1032D00094F88300800744D094F8820050B901200C
:1032E00084F88200C8200121FEF749FF94F882008B
:1032F0000128FBD1002084F8830084F8820000209C
:10330000B07400BF307F0007FCD543F2021030815B
:103310000020B072307F8006FCD50320287741F270
:103320002120C2F2010030600520B071B07931680F
:1033300057F82000C1F30261F022C840C8F800002D
:1033400042F20800C4F20000F12101710121017074
:1033500002714FF42540317486F832102080BDE8A8
:10336000F0814FF47A70FEF72EFFC8E77047000037
:10337000F0B583B048F248070320C4F20007FEF717
:10338000AEFE6FF0FF0038604FF0FF3045F68C0462
:103390000290CDE9000000210122C0F2000468463D
:1033A00054F821304BB14B0901F01F0550F8236050
:1033B00002FA05F5AE4340F8236001316029EFD1F0
:1033C0004EF280320021CEF2000200BF50F82130D0
:1033D00007EB8106B36242F8213001310329F5D1B0
:1033E0000320FEF7A3FE46F200310020C4F20001E4
:1033F00054F820200AB141F820200130602804BF91
:1034000003B0F0BDF4E701380028FCD1704700009C
:103410002DE9F04F81B00446008800285AD043F2CD
:1034200040084EF2BB4B0025C4F208080FF2AC0A6C
:10343000C4F2010B4FF00109002700BF60685AF881
:10344000272000EBC501496891423CD150F8350076
:103450009BF8001000F0B85009FA07F6B0F1807F31
:1034600006EA010014D150B90120FEF738FE9BF89E
:10347000000030438BF800000120FEF757FE18F9DA
:10348000170000281FD418F8170040F0800014E03F
:1034900050B10120FEF723FE9BF80000B0438BF8EB
:1034A00000000120FEF742FE18F91700B0F1FF3FBF
:1034B00009DC18F8170000F07F0008F81700C82092
:1034C0000121FEF75CFE0137032FB7D120880135BB
:1034D0008542B1D301B0BDE8F08F00BF0204000007
:1034E0000304000004040000B0B582B064204FF46F
:1034F0007A71FEF744FE40F22530C2F2000040F639
:103500008425027843788478C2F2000505A1284614
:10351000009401F05BFE284602B0BDE8B04001F027
:103520001FBB00BF74382E7478743D22253032647E
:103530003A253032643A25303264220070B540F6C4
:1035400030160025C4F2080647A400BF3068800783
:1035500014D4204602F094F84FF4FA704FF47A71C4
:10356000FEF70DFE042D05F10105EFD345F6AD7014
:10357000C0F20000BDE8704002F082B821A22149EB
:10358000D2E9013640F65810D268C2F2000080E855
:103590004A00C26001F0E4FA1EA002F071F828A00F
:1035A00002F06EF845F64F7445F626760025C0F217
:1035B0000004C0F2000600BFFDF7EDF9012816D0A7
:1035C00058B14FF496704FF47A71FEF7D8FD092D7B
:1035D00005F10105F0D3344609E045F67D70C0F2EF
:1035E000000002F04DF845F62674C0F200042046B3
:1035F00002F046F84FF47A704FF47A71BDE87040EB
:10360000FEF7BDBD74302E7478743D22C8B7C8CFA4
:10361000D6D022003E3E3E205374617274696E67BC
:103620002066696E6765727072696E7420656E726D
:103630006F6C6C6D656E74203C3C3C0D0A0D000097
:103640005374657020313A20506C61636520796F46
:1036500075722066696E676572206F6E2073656E85
:10366000736F722E2E2E0D006661696C6564210DDC
:103670000000000010B582B00020ADF806000DF18A
:103680000600FDF763FA022821D001285ED1BDF8BB
:10369000061036A001F070FDBDF80610032923D0F6
:1036A000022934D001294ED1404940F658103FA29A
:1036B000C2F200005368016011894360018101F08A
:1036C0004FFA0120012401F06BFB012031E00420BE
:1036D00001F000FD21A001F0D3FF4FF47A704FF408
:1036E0007A71FEF74CFD31E02A4940F6581029A2C4
:1036F000C2F200005368016011894360018101F04A
:103700002FFA0320032401F04BFB032011E024498E
:1037100040F6581022A2C2F20000536801601189DD
:103720004360018101F01CFA0220022401F038FB01
:10373000022001F0CFFC40F2F160C2F20000047000
:10374000FFF7D2FE02E01CA001F016FD0A204FF4A4
:103750007A71FEF714FD02B010BD00BFD6B8CEC618
:10376000CAB6B1F0CAA7B0DC0D0000003E3E3E2054
:1037700046696E6765727072696E74204D4154437C
:10378000484544212049443D2564203C3C3C0D0AE9
:103790000D0A00007661302E76616C3D330000002A
:1037A0007661302E76616C3D320000007661302EFD
:1037B00076616C3D3100000048656C6C6F2055737C
:1037C00065722025640D0A0080B582B045F6685107
:1037D000C0F200018B680A689B68019001A910463D
:1037E0000122984740F2F440C2F20000016800292B
:1037F000FCD000210160019802B080BD40F2B430DD
:10380000C2F200000168013101607047B0B5D0F824
:1038100008E0DEF868C00CF1010C21B18C4502D93A
:10382000481E1060B0BDDEF834E04068DB0718BF0A
:103830004FEA1E4E03680EF00C000438B0FA80F018
:103840004009032B0EF010044FF0010588BF85EAF4
:10385000141001B920B18C4504D890F0010001D1B9
:10386000022000E003205060B0BD10B584B0EFF33B
:10387000038046F200316FF35F20C4F2000110387C
:1038800051F8202040F2605322F4803241F8202089
:10389000C2F2000351F8202053F8204062681268F9
:1038A000012A1FD1D4E902239360A2680023936404
:1038B000A268D364A268136551F8202022F48032F4
:1038C00041F8202051F8201000F01F01012202FAD7
:1038D00001F14EF28022BFF35F8F4009CEF2000269
:1038E00042F820106169A1B1A06930B1D0E900C2ED
:1038F00083680393CDE901C200E001A8E3690022D7
:103900004260826003608847A06910B101AB0ECBB2
:103910000EC004B010BD000045F66851C0F20001B1
:1039200007C91268904700B1FEE745F63C30C0F287
:1039300000008568D0E900412A6820469047696800
:103940002046884740F2DC504FF47A71FEF717FCAE
:10395000FFF75EFCFDF7E7F8FDF706FD01F025FB3C
:1039600001F0D1F901F0AEFB00F0A1FCA0B10BA079
:1039700001F002FCFFF77EFEFDF722F9FDF700FEE5
:1039800000F018FC00F04CFE00F0B6FD01F0C6FBA4
:1039900000F022FDEEE700BFFEE700BF494E4954AC
:1039A0002073756365737366756C212100000000D8
:1039B000416840F271300129C2F2000006D00329AB
:1039C0000CD0022918BF7047002102E001210170CC
:1039D000122140F27030C2F2000000E0002101220A
:1039E000027040F26C30C2F2000001607047B0B566
:1039F000EFF3038040F260516FF35F20C2F20001E9
:103A000001EB800050F8404C2169487A4A7A02F074
:103A1000E0024A72C10600F0030201D44AB927E06D
:103A2000D4F810C001219CF8013021EA9311114310
:103A30001AD0012084F82B0020690025C571216867
:103A4000204600F093F894F82600A16984F8280035
:103A50002069C4E90751B32184F82C5084F82A5016
:103A6000C1712046012148E09CF80110490621D48B
:103A700000F01F0001070CD494F82C1000F0040093
:103A800000294ED000284CD094F82B0058B30121C7
:103A900032E094F82B0030B394F82600002184F82B
:103AA0002800A069C4E9071084F82C1084F82A10B3
:103AB00001211EE0012084F82B0008208CF8010071
:103AC0002068406B0178C27A007B41EA021141EA2A
:103AD000C010216940F00200C8702069417941F0AE
:103AE000010141710BE094F829000221002808BF70
:103AF00003212069B322C271204600F01CF8EFF3C5
:103B000003806FF03F016FF35F2001EB800046F20E
:103B10000031C4F20001425822F480324250405831
:103B2000B0BD0028EBD02068406B407B0028E6D079
:103B300020460421E1E710B582B00446806B0028DE
:103B40001ABFD0E90032CDE900326846E26B636B00
:103B5000C0E900219847A06B18B1DDE90012C0E967
:103B60000012002084F82B0002B010BDF0B50269ED
:103B70001F23137002695F2313700269DF23137020
:103B800002680369526B0825927A772442F0E002BA
:103B90001A7402680369526B4EF2001C527ACEF21C
:103BA000000C42F0E0025A7402680369526B40F262
:103BB000605E127AC2F2000E62F306159D70026812
:103BC0000369526BD2E90025012A4FEA450508BF77
:103BD000013545F00402DA7002680369526844F264
:103BE0004025C0F20F05AA4208BF6FF008045C71BF
:103BF0000269002393710269B323D3710A7C0D6AB1
:103C000013010CF54072535546F200334EF825006F
:103C1000C4F2000353F8254005F01F0624F4803455
:103C200043F8254053F82540012404FA06F66F09AD
:103C30000CF5C075BFF35F8F45F827604CF827601F
:103C40000E7C8F693601D6554EF8270053F8276051
:103C500026F4803643F8276053F8276007F01F06E4
:103C600004FA06F67F09BFF35F8F45F827604CF82A
:103C700027600E7CCF693601D6554EF8270053F8E1
:103C8000276026F4803643F8276053F8276007F052
:103C90001F0604FA06F67F09BFF35F8F45F8276019
:103CA0004CF827600E7C4969360156544EF82100C5
:103CB00053F8212022F4803243F8212053F82120A8
:103CC00001F01F0204FA02F24909BFF35F8F45F8C1
:103CD00021204CF821209F2100690170F0BD0000D7
:103CE00010B581B0D0F808C04161BCF1010F82610C
:103CF00008D141684FF4807C43EA4101A0F825C017
:103D000080F824104EF22001002B18BF012380F808
:103D10002930C4F2010109680091009901F00F21D6
:103D20000091DDF800E0DDF800C001690B7C90F83F
:103D30002C40002C5ED0C26190F82620002180F833
:103D40002810016280F8272080F82B1080F82D10B1
:103D500080F82E1080F82F1080F830100168D0F80D
:103D600010C0496BD1E900430A7B012CCC7A4FEAA1
:103D700043034FEA041408BF013344EAC2121A4352
:103D800042F004028CF803200269137943F0100317
:103D900013710269137903F0F70313710269137940
:103DA00003F0EF0313710269497B137903F07F037A
:103DB00043EAC111117101694A7942F001024A7165
:103DC0000168896900290BD401F01F02012303FA5D
:103DD00002F24EF200134909CEF2000343F821200B
:103DE0000169BF22CA7190F82C1099B1002180F8A6
:103DF0002C1013E0CEF30322A2EB1C6203FA02F2B2
:103E0000920805D091F90130002B0AD5013AF9D179
:103E1000082103E00069022141700021084601B039
:103E200010BDB322CA71826985E710B582B0EFF385
:103E300003806FF03F016FF35F2001EB800046F2DB
:103E40000031C4F20001425822F4803242504058FE
:103E5000EFF3038040F260516FF35F20C2F2000184
:103E600001EB800050F8404C94F82D00B8B1E069A7
:103E7000002800F096802168496B497B21B12046DB
:103E80000521FFF758FEE069012834D0022867D0E9
:103E9000032874D12069017941F040016EE0A069E6
:103EA000022804D82069017941F040010171E069DC
:103EB00001280ED12069017941F0100101712069BA
:103EC000017941F0080101712069017901F0EF01E8
:103ED00001712068406B407B18B120460521FFF737
:103EE0002AFE2069C07C8DF807009DF8070001209C
:103EF00084F82D0055E094F82A00002853D020685B
:103F00004EF280138169012001F01F0200FA02F2D3
:103F10004909CEF2000343F82120BFF34F8FBFF3CE
:103F20006F8F2169CA7942F08002CA7121690A79CA
:103F300042F010020A7121690A7902F0F7020A714F
:103F400021690A7902F0EF020A71216904224A709C
:103F500021694A7902F0FE024A7184F82C000EE0D1
:103F60002069017941F0100101712069017941F066
:103F7000080101712069017901F0EF010171D4E9B3
:103F80000401C07C226A8854D4E90710013900F189
:103F90000100C4E9071004D12069017901F0BF01D3
:103FA000017102B010BD2069417A01F0F701417240
:103FB000206908214170E2E710B5EFF3038040F279
:103FC00060516FF35F20C2F2000101EB800050F8F6
:103FD000404C2068406B407B18B120460521FFF71C
:103FE000AAFD94F8290030B194F82700012802D1E5
:103FF00094F8300070B3E06960BB94F82A0008B30D
:104000002068012280694EF2801300F01F0102FA3D
:1040100001F14009CEF2000343F82010BFF34F8FA7
:10402000BFF36F8F2069C17941F08001C1712069B0
:10403000042141702069417901F0FE01417184F849
:104040002C2007E02069417A01F0F70141722069D4
:10405000082141702069C17901F0BF01C171206957
:104060006FF0BE01C279520603D5002901F10101AA
:10407000F8D1EFF303806FF03F016FF35F2001EBA6
:10408000800046F20031C4F20001425822F480322E
:104090004250405810BD0000B0B5EFF303806FF000
:1040A0003F016FF35F2001EB800046F20035C4F260
:1040B0000005415921F4803141514059EFF303800B
:1040C00040F260516FF35F20C2F2000101EB80000B
:1040D00050F8404C94F82700C8B194F82600032803
:1040E00006D194F82800022802D194F8300088B153
:1040F00094F824002169887494F8280094F8271013
:10410000013084F82800481E84F82700B0BD94F8D8
:10411000290000B1B0BD2068406B407B40B194F8ED
:104120002B0028B9206A18B120460521FFF703FDAE
:10413000E06960B1D4E90420216A405C9074D4E95C
:104140000710013900F10100C4E90710E2D120692C
:10415000C17901F07F01C17120696FF0BE0100BF1C
:1041600090F90720B2F1FF3F03DC002901F10101C2
:10417000F6D12068C06955F8201021F4803145F847
:10418000201055F820002068C06900280BD400F0EA
:104190001F01012202FA01F14EF280224009CEF203
:1041A000000242F820102069C17941F04001C1713C
:1041B000B0BD0000B0B545F60C20C0F2000080682C
:1041C00040F2AC04836940F27430C2F20004C2F2DF
:1041D0000000002122460025984740F2A801C2F2C3
:1041E000000120680A68904205D140F2E261C2F203
:1041F00000010D700CE040F2E262C2F2000213789E
:104200000133DDB2032D13700DD30023137008604A
:1042100040F2E461C2F200010A68022A09D0012AD0
:1042200002D04AB9E0B1B0BD012808D1002217A0E0
:1042300011E0012818BFB0BD00200860B0BD40F2F9
:10424000E060C2F200000288013293B20280322B99
:10425000E9D3022207A00A60BDE8B04001F010BA1D
:104260000120086040F2E060C2F2000000210180FD
:10427000B0BD00BF4C6F6E672070726573732064B1
:1042800065746563746564210D00000053686F7286
:1042900074207072657373206465746563746564FB
:1042A000210D000080B5FFF737FB002080BD2DE910
:1042B000F04140F2BC3045F64C21C2F20000C0F2A1
:1042C0000001FEF781F848BB40F2DC3045F6C4211E
:1042D000C2F20000C0F20001FEF776F830B140F201
:1042E000BC30C2F20000FDF783FF17E040F6A425C2
:1042F00040F2BC30C2F20005C2F200002946FEF7CF
:1043000045F858B940F6B02440F2DC30C2F200045F
:10431000C2F200002146FEF739F818B10025284600
:10432000BDE8F08140F2BC30C2F20000FEF78FF928
:1043300020B140F2BC30C2F200000EE040F2DC30AE
:10434000C2F20000FEF783F970B140F2BC34C2F251
:1043500000042046FEF789F92046FDF749FF40F2A8
:10436000DC30C2F20000BEE7A8684FF4966800FB9C
:1043700008F041F25977CDF2B71740F2BC36A0FBF6
:104380000701C2F20006890B30460022FDF790FFBC
:10439000A868012200FB08F00125A0FB0701890B9A
:1043A0003046FDF785FFA06840F2DC3600FB08F0E0
:1043B000C2F20006A0FB0701890B30460022FDF780
:1043C00077FFA068012200FB08F0A0FB0701890B22
:1043D0003046FDF76DFFA2E7F0B581B040F2F16025
:1043E000C2F200000078032884BF01B0F0BDDFE80E
:1043F00000F002693E5340F6A427C2F20007B868F5
:104400004FF4966500FB05F041F25976CDF2B716F0
:1044100040F2BC34A0FB0601C2F20004890B204626
:104420000022FDF745FFB868012200FB05F0A0FB64
:104430000601890B2046FDF73BFF40F6B027C2F28C
:104440000007B86840F2DC3400FB05F0C2F200045B
:10445000A0FB0601890B20460022FDF729FFB86862
:1044600000FB05F0A0FB0601890B204628E040F682
:10447000B020C2F2000080684FF4E16100FB01F05F
:1044800041F25971CDF2B711A0FB010140F2DC30CD
:10449000890BC2F2000029E040F6A420C2F200001D
:1044A00080684FF4E16100FB01F041F25971CDF2F7
:1044B000B711A0FB010140F2BC30890BC2F2000031
:1044C000012214E040F6A420C2F2000080684FF4FC
:1044D000E16100FB01F041F25971CDF2B711A0FB8F
:1044E000010140F2BC30890BC2F20000002201B091
:1044F000BDE8F040FDF7DCBE70B584B040F2B836E0
:10450000C2F200063078D8B340F28834C2F2000418
:1045100030A0214600F030FE01AD32A103AA02AB6B
:1045200020460095FBF7AAFE032827D1039840F206
:104530002531C2F2000108700298002248700198EB
:1045400040F68424887040F21C40C2F200000260F1
:1045500040F22430C2F20000012202700A784B7847
:104560008D78C2F2000446F21901C0F20001204623
:10457000009500F02BFE204600F0F2FA002030708B
:1045800040F29A34C2F20004208808B3B4F9000063
:10459000022807D0012819D11BA001F071F81D488D
:1045A0001CA104E012A001F06BF8144813A140F61E
:1045B0008422C2F20002106008894B68108140F624
:1045C0008420C2F20000536000F0CAFA002020806C
:1045D00004B070BDCAD5B5BDCAB1BCE43A202573DC
:1045E0000D0A000025643A25643A256400000000A5
:1045F000C1ACBDD3B3C9B9A60D0000007661302EA1
:1046000076616C3D37000000C1ACBDD3CAA7B0DCF9
:104610000D0000007661302E76616C3D38000000A0
:10462000F0B581B040F2983640F2E867C2F2000679
:10463000C2F200073088398888424BD0B6F90000B2
:10464000032813D0022821D0012841D125A12548D3
:1046500040F620224B68C2F20002C2E9000308893A
:10466000897A10819172012404251EE020A120483E
:1046700040F620224B68C2F20002C2E9000308891A
:10468000897A03240625108191720EE012A1124846
:1046900040F620224B68C2F20002C2E900030889FA
:1046A000897A108191720224052540F62020C2F2F9
:1046B000000000F055FA284600F072FB204600F09A
:1046C00009FDFEF711FF40F2F160C2F20000047034
:1046D0003088388001B0F0BD7661302E76616C3D57
:1046E000323200007661302E76616C3D313100004F
:1046F0007661302E76616C3D33330000002828D47B
:104700004EF2001CCEF2000C090100EB0C0383F802
:10471000001340F26051C2F2000141F8202046F23D
:104720000031C4F2000151F82020012322F480322C
:1047300041F8202051F8201000F01F02400903FA30
:1047400002F20CEB8003BFF35F8FC3F880214CF8BB
:104750002020704770B50446FEF75AFE40F2843CB4
:10476000EFF31081012080F31088C2F2000CDCF816
:10477000000038B940F60350C4F20800002202706D
:1047800040220270DCF800000130CCF8000081F318
:104790001088208818B340F6000E0021C4F2080EDD
:1047A000606800EBC10250F831305268DD034FEA17
:1047B0001220D2B20BD50EEB801555F8226026F4EC
:1047C000803645F8226023F4803645F822600EEBEF
:1047D0008010013140F8223020888142E0D301204E
:1047E000EFF3108180F31088DCF8000020B1DCF8D2
:1047F00000000138CCF80000DCF8000038B940F6C1
:104800000350C4F20800002202708022027081F37B
:10481000108870BDB0B584B00446806A40B1D0E95C
:1048200000CED0E90253CDE900CECDE9025300E03D
:104830006846E369D4F824C01B78E56AC0E9003211
:10484000C0E90215E047A06A10B19DE82E002EC015
:1048500004B0B0BDB0B5EFF303806FF35F20A0F1FB
:10486000100540F26050C2F2000050F82500817837
:10487000036A01F00301022912BF5979198A6FF303
:104880005F211A79D40602F0380203D51C7FE407B1
:1048900008BF40321C7904F0C7041C71436A0BB195
:1048A000FFF7B8FF46F20030C4F2000050F82510C0
:1048B00021F4803140F8251050F82500B0BD10B526
:1048C00082B0EFF303806FF03F016FF35F2001EBE5
:1048D000800046F20031C4F20001425822F48032D6
:1048E000425040F26052C2F2000241581458A0787F
:1048F00000F00302206A022A12BF4179018A6FF395
:104900005F21A069019198B1606901A9FBF758FC8A
:10491000A0786169A26900F003000144101A616186
:10492000A0610ED1606A60B120460021012203E03F
:10493000606A30B12046042202B0BDE81040FFF7A3
:1049400069BF02B010BD10B5EFF303806FF35F20B5
:10495000A0F1100440F26050C2F2000050F82400B0
:10496000016A8A7802F07B028A70416A19B10021DB
:104970000222FFF74FFF46F20030C4F2000050F869
:10498000241021F4803140F8241050F8240010BD88
:10499000EFF303806FF03F016FF35F2001EB8000C6
:1049A00046F20031C4F20001425822F480324250F3
:1049B00040F26052C2F2000241581058C1694A6B7D
:1049C0000169CAB9C9B1817801F00301022906D190
:1049D000C168026A098841F47E41D18103E0C1685F
:1049E000026A0978D1708178026901F00303D11A53
:1049F000C26801611A44C26079B9016A8A7802F01A
:104A00007B0204328A70416A00294FF00001C160C4
:104A100003D000218022FFF7FDBE704710B5A2B081
:104A200002AC8C46034608A220468021CDF800C087
:104A300000F0B2FB204600F099F907A0214600F0F3
:104A40009BFB22B010BD00BF40574946493A257331
:104A50002C25730D0A000000B7A2CBCDB5BD455380
:104A60005033323A2025730040F6F000C2F20000C5
:104A7000016869B1016801390160006840B940F21C
:104A80005220C2F20000018811B141F400410180BE
:104A90007047B0B5406800B1B0BDFFF7E5FFFEF765
:104AA000ADFE00F02EF840F2F064C2F2000420786F
:104AB00090B140F2DC20C2F2000000681E280BD149
:104AC00045F60C20C0F20000006840F20B410022C5
:104AD0000025FDF75EFF257040F2F160C2F2000094
:104AE00001780029D8D040F2E021C2F200010A6822
:104AF0000132B2F52F7F0A60CED300220A60027025
:104B0000B0BD40F22430C2F20000007830B340F271
:104B10001C40C2F200000168013101600168B1F57A
:104B20007A7F1BD30021016040F22530C2F20000E1
:104B300082780132827082783C2A0FD3817041786A
:104B40000131417041783C2908D30021417002783D
:104B5000013202700278182A28BF017070470000E5
:104B60002DE9F04381B045F6EC410546C0F2000165
:104B700000780C688E6840F2BC47C2F20007A0B112
:104B8000E8464FF0000900BFB3688DF800002046EA
:104B900041460122984700BF38680028FCD0C7F87A
:104BA000009015F8010F0028EED1FF20B3688DF8B2
:104BB00001000DF1010120460122984738680028C4
:104BC000FCD000203860FF20B3688DF802000DF1A2
:104BD000020120460122984738680028FCD00020B6
:104BE0003860FF20B3688DF803000DF10301204603
:104BF0000122984738680028FCD00020386001B0B6
:104C0000BDE8F0832DE9F04182B0416802394FEAF6
:104C10007101072900F27480DFE801F00B127204C1
:104C20007272720440F60030C2F20000002101707E
:104C300066E040F25040C2F20000012101605FE0F6
:104C4000007A40280ED140F60031C2F20001002265
:104C50000A700A78531C0B7040F6C021C2F20001A2
:104C600088544DE040F60037C2F200073978002939
:104C700046D039783F2943D83A780A2802F1010111
:104C8000397040F6C021C2F20001885438D138781A
:104C9000042835D3387800264D1C0E5428463A2176
:104CA000FBF7C4FAB8B140F28834C2F200042046DF
:104CB0002946FBF7D9FAFBF7C3FA28B10138215C82
:104CC0000A2904BF0021215440F2B830C2F200008A
:104CD0000121017012E03878E8460238C4B240463B
:104CE00029462246FBF76CFA404608F80460FBF7B9
:104CF00087FB40F29A31C2F2000108800020387030
:104D000002B0BDE8F08180B540F6C020C2F20000DC
:104D10004021FBF76EFA40F60030C2F2000000219D
:104D2000017040F6BC20C2F20000017040F2283051
:104D3000C2F20000017040F29A30C2F2000001801D
:104D400040F2B830C2F20000017040F28830C2F286
:104D50000000C0E90011C0E9021145F6F431C0F2CB
:104D6000000107C91268BDE88040104710B558B16E
:104D70000446FBF765FA024640F22040C2F200000A
:104D80002146FEF7B9F800B110BD40F25040C2F222
:104D9000000000BF01680029FCD00021016010BDA7
:104DA00010B584B06C46024604A1204600F00EFA0D
:104DB0002046FFF7DBFF04B010BD00BF4025640DA7
:104DC0000A00000040F2EC62C2F200021168B1FA7F
:104DD00081F341685B090129136009D004290ED0D1
:104DE000022918BF704740F28540C2F2000003E07C
:104DF00040F28440C2F2000001210170704740F28D
:104E00005221C2F20001B1F90020002AF6D492B278
:104E10001309182B82BF42F400400880704740F607
:104E2000F00CC2F2000C64238068CCF80030531CF4
:104E30000B8040F2C101C2F200018854704710B5E6
:104E40004168012909D004290ED0022918BF10BDDC
:104E500040F2BC40C2F2000003E040F2B840C2F2AF
:104E600000000121016010BD40F2F46CC2F2000CA0
:104E7000BCF8042093087C2B17D8BCF802E044F659
:104E8000D3530EF10101C1F26203A1FB03346309A4
:104E90004FF4FA74806803FB14110CEB0E03987145
:104EA000501CACF80210ACF8040040F2D820C2F25A
:104EB000000001780131017010BD4168012909D05D
:104EC00004290ED0022918BF704740F2F440C2F204
:104ED000000003E040F2F040C2F200000121016056
:104EE000704740F29C32C2F200021369017A104608
:104EF00018470000F0B583B0416802394FEA7101EC
:104F0000072950D8DFE801F00B124F044F4F4F0430
:104F100040F60E30C2F200000021017043E040F282
:104F20002850C2F20000012101603CE0007A4028D4
:104F30000ED140F60E31C2F2000100220A700A784A
:104F4000531C0B7040F60431C2F2000188542AE071
:104F500040F60E36C2F20006317821B331780929C5
:104F600021D832780A2802F10101317040F604316B
:104F7000C2F20001885416D13078042813D3307857
:104F800001AD0338C4B2013128462246FBF718F9B7
:104F9000002728462F55FBF733FA40F29831C2F22A
:104FA00000010880377003B0F0BD40F60430C2F253
:104FB000000000210181C0E9001140F60E30C2F26C
:104FC0000000017040F29830C2F20000018045F606
:104FD000E451C0F2000107C91268104710B584B04F
:104FE0006C4602460DA1204600F0F0F82046FBF783
:104FF00027F9024640F2F840C2F200002146FDF7D0
:105000007BFF40B940F22850C2F20000016800293D
:10501000FCD00021016004B010BD00BF4025640D2C
:105020000A000000F0B583B0416802394FEA71010F
:10503000012908D0002943D140F25C50C2F200009F
:10504000012101603CE0007A40280ED140F6193180
:10505000C2F2000100220A700A78531C0B7040F65D
:105060000F31C2F2000188542AE040F61936C2F22C
:105070000006317821B33178092921D832780A28FD
:1050800002F10101317040F60F31C2F20001885483
:1050900016D13078042813D3307801AD0338C4B268
:1050A000013128462246FBF78BF8002728462F556A
:1050B000FBF7A6F940F28C01C2F2000108803770BC
:1050C00003B0F0BD45F66061C0F2000107C9126887
:1050D0001047000010B584B06C4602460DA1204672
:1050E00000F074F82046FBF7ABF8024640F22C5073
:1050F000C2F200002146FDF7FFFE40B940F25C50CD
:10510000C2F2000001680029FCD00021016004B057
:1051100010BD00BF4025640D0A000000B0B582B08C
:1051200040F22430C2F20000007858B140F225303D
:1051300040F2B101C2F20000C2F2000182780B78A5
:105140009A4201D102B0B0BD827840F684250A703F
:10515000027843788478C2F2000546F21901C0F261
:1051600000012846009400F031F8284602B0BDE85E
:10517000B040FFF7F5BC00000FB4054B10B503A914
:10518000044A029800F03AF810BC5DF814FB0000E5
:10519000C9370000000000200FB47CB50C0009AD39
:1051A00001D0611E00E00021CDE90001064B6A46F6
:1051B0002946089800F022F8002C02D0009A00211D
:1051C00011707CBC5DF814FB5F5600000FB4084BF7
:1051D00010B504A902AA039800F010F8044602A929
:1051E000002000F047FA204610BC5DF814FB0000D8
:1051F0007556000000487047040000202DE9FF4F5D
:105200008DB00F460546002606E025280BD0DDE9C7
:105210000F1290476D1C761C28780028F5D111B02C
:105220003046BDE8F08F0024A246A1460122EC4999
:1052300000E0044315F8013F203B02FA03F0084266
:10524000F7D128782A2810D06FF02F022878A0F103
:105250003001092914D80AEB8A0102EB410144F01C
:10526000020400EB010A6D1CF0E701CF5FEA000ABF
:1052700003D544F40054CAF1000A44F002046D1C42
:1052800028782E2817D115F8010F44F004042A2895
:105290000ED06FF02F022878A0F1300109290AD82A
:1052A00009EB890102EB410100EB01096D1CF2E7FA
:1052B00057F8049B6D1C28786C280FD006DC4C280E
:1052C00017D068280DD06A2814D104E0742810D0B3
:1052D0007A280FD10DE044F400140AE044F480145D
:1052E00001E044F440146978814202D104F580144D
:1052F0006D1C6D1C2A786E2A1FD00CDC632A31D0FD
:1053000004DC002A8BD0582A11D1A3E0642A68D08B
:10531000692A0CD165E0732A2ED004DC6F2A73D081
:10532000702A04D19BE0752A6FD0782A6ED010467F
:10533000DDE90F129047761C50E1C4F302500228B9
:1053400006D0032809D0042801CF09D0066045E122
:1053500001CFF117C0E9006140E101CF06803DE1D6
:1053600006703BE117F8040B8DF8000000208DF863
:105370000100EB46012003E057F804BB4FF0FF307B
:1053800061074FF0000102D40DE008F101018846E9
:1053900049450FDA8045F8DB1BF808100029F4D1E5
:1053A00008E008F1010188468142FADB1BF8081089
:1053B0000029F6D1DDE90F23AAEB0800814621463A
:1053C00000F036F9304400EB080604E0DDE90F1286
:1053D0001BF8010B9047B8F10108F7D22146484667
:1053E000F7E00A21C4F302534FF0000B0891022B9F
:1053F00004D001CFC117032B09D00AE0FF1D27F00D
:105400000707F7E8020108E032E01FE020E000B201
:10541000C117042B01D140B2C117031E71F1000363
:1054200007DA4FF0000CD0EB0C006CEB01012D23E0
:1054300002E0230504D52B238DF82430012303E05B
:10544000E30701D02023F7E7984658E00A2110E04F
:1054500010210EE010204FF0000B08900CE01021FE
:105460004FF0000B44F004044FF00809089103E0EA
:1054700008214FF0000B0891C4F30253022B04D013
:1054800001CF0021032B06D006E0FF1D27F0070700
:10549000F7E8020103E080B2042B00D1C0B24FF064
:1054A000000823072BD5702A07D0DDF820C08CF028
:1054B000100C5CEA0B0C05D00EE040238DF8243074
:1054C000012308E050EA010306D030238DF8243090
:1054D0008DF8252002239846DDF820C08CF0080CBA
:1054E0005CEA0B0C0BD150EA010301D1630706D52E
:1054F00030238DF824304FF00108A9F10109582A12
:1055000004D038A20B9208AA0A920BE03AA2F9E75B
:105510005B46089AFAF781FF0B9B9B5C0A9A521E26
:105520000A92137050EA0102F2D10A98ADEB000022
:1055300000F1200B600702D524F4803401E04FF025
:105540000109D94502DDA9EB0B0000E0002000EBCA
:105550000B0141440890AAEB010AE00306D4DDE9FF
:105560000F232146504600F063F806444FF000092F
:1055700008E009A911F80900DDE90F12904709F1C7
:105580000109761CC145F4DBE0030CD5DDE90F23EE
:105590002146504600F04CF8064404E0DDE90F12C5
:1055A00030209047761C0899481E08900029F5DCA9
:1055B00008E00A980A990078491C0A91DDE90F125F
:1055C0009047761CBBF10001ABF1010BF1DC2146E9
:1055D0005046DDE90F2300F019F806446D1C1BE668
:1055E00009280100303132333435363738396162B9
:1055F000636465660000000030313233343536377D
:105600003839414243444546000000002DE9F0414D
:10561000044600251E461746880404D405E0394692
:105620002020B0476D1C641EF9D52846BDE8F081E6
:105630002DE9F041044600251E469046C80301D5D9
:10564000302700E02027880404D505E0414638468D
:10565000B0476D1C641EF9D52846BDE8F0814A6844
:10566000002A06D00A68531C0B6010704868401E60
:10567000486070470A68531C0B6010707047000048
:1056800010B5044601E0FEF79FF814F8010B044939
:105690000028F8D1BDE810400A20FEF795B80000B8
:1056A0000000002000404040404040404040414118
:1056B00041414140404040404040404040404040E7
:1056C0004040404040050202020202020202020281
:1056D000020202020220202020202020202020027E
:1056E000020202020202909090909090101010100E
:1056F00010101010101010101010101010101010AA
:10570000020202020202888888888888080808083D
:105710000808080808080808080808080808080809
:105720000202020240000000A55600000100020033
:10573000080010001B00000040570000000000009F
:10574000000000000000000004000000060100004E
:105750000400000007010000000001000801000033
:105760000000010309010000000001030A0100001C
:10577000040000000C010000000001030D01000006
:10578000000001030E0100000000010502020000FC
:1057900000000105030200000000010000030000FA
:1057A00000000104010300000000010402030000E6
:1057B0000400000000040000040000000B040000CE
:1057C000000000000C0400000000010501050000BD
:1057D0000000010502050000000401070B050000A0
:1057E000000401070C05000000000104070600008A
:1057F000000001050D060000000001050E06000076
:105800000000010506070000000001050707000071
:1058100000000104000A00002C03002024580000AE
:105820006C58000001000000A0860100000000008C
:10583000010000000C00000000000000010000005A
:105840000200000003000000000000000000000053
:10585000B1390000000000005C58000001000000A9
:1058600001000000031C1C00000000008527000050
:1058700005280000332800007526000011280000CC
:10588000A72600001B280000B526000078000000B5
:10589000790000007A0000007B0000009E010000FB
:1058A0009F010000A0010000A10100009201000082
:1058B000930100009401000095010000C600000063
:1058C000AA010000AB010000AC010000AD01000026
:1058D0008C0100008D0100008E0100008F0100008E
:1058E000B0010000B1010000B2010000B3010000EE
:1058F000B6010000B7010000B8010000B9010000C6
:105900000000000000000000000000000000000097
:105910000000000000000000000000000000000087
:105920000000000000000000000000000000000077
:105930000000000000000000000000000000000067
:105940000000000000000000000000000000000057
:105950000000000000000000000000000000000047
:105960000000000000000000000000000000000037
:105970000000000000000000000000000000000027
:105980000000000000000000000000000000000017
:105990000000000000000000000000000000000007
:1059A00000000000000000000000000000000000F7
:1059B00000000000000000000000000000000000E7
:1059C00000000000000000000000000000000000D7
:1059D00000000000000000000000000000000000C7
:1059E00000000000000000000000000000000000B7
:1059F00000000000000000000000000000000000A7
:105A000000000000000000000000000074030020FF
:105A100034570000185A0000492800003F280000B1
:105A2000B72900005F2800000D290000352900007B
:105A30007129000093290000C3290000EF2900000C
:105A4000072A0000272A00003D2A0000020000006B
:105A500080841E00000000000000000001FF000024
:105A6000DFFFFFFF0000000000000000705A000090
:105A70000100000000000000010000000000000024
:105A80000000000000000000000000000000000016
:105A90000000000000000000000000000000000006
:105AA00000000000FFFF0000DFFFFFFFDFFFFFFF40
:105AB00000000000000000000000000000000000E6
:105AC000000000000200000080841E0000000000B2
:105AD00040420F0002FF0000DFFFFFFF0000000058
